:100000000C942A000C943B080C9464080C948D0802
:100010000C946E0C0C94970C0C940A0C0C94B80B6A
:100020000C94E10B0C948F0B0C949F090C94C80951
:100030000C9447000C947C0D0C9447000C944700E2
:100040000C944B050C9447000C9447000C9447000B
:100050000C94470011241FBECFE5D8E0DEBFCDBF12
:1000600011E0A0E6B0E0EAEAFBE202C005900D92E2
:10007000AE31B107D9F714E0AEE1B1E001C01D9295
:10008000AA37B107E1F70E94820F0C94D3150C94A4
:100090000000CF93DF93C62FD22FE82FF0E0E35973
:1000A000FB4F262F2370842F8770880F880F9D2F7A
:1000B0009295990F907E822B892B8083862F642FB7
:1000C00041E00E947E058C2F6D2F41E00E947E054D
:1000D000DF91CF910895CF93DF93C82FD0E0C3591C
:1000E000DB4F8881682F669566956770837041E065
:1000F0000E945F068881682F62956695677083709D
:1001000040E00E945F06DF91CF910895CF93DF9387
:10011000C82FD0E0C359DB4F8881682F669566955C
:100120006770837040E00E945F068881682F629547
:1001300066956770837041E00E945F06DF91CF9102
:100140000895CF93DF93C82FD0E0C359DB4F888148
:10015000682F669566956770837040E00E945F0621
:100160008881682F629566956770837040E00E9471
:100170005F06DF91CF910895CF93C82F862F0E94FD
:100180006B008C2F0E946B00CF910895CF93C82FE6
:10019000862F0E9486008C2F0E948600CF910895A2
:1001A000CF93C82F862F0E94A1008C2F0E94A10000
:1001B000CF910895CF93C82F862F0E946B008C2F6C
:1001C0000E948600CF910895CF93C62F0E946B00A6
:1001D0008C2F0E948600CF910895413019F40E941F
:1001E000BC000895423019F40E94C60008954430BE
:1001F00019F40E94DA000895453019F40E94E400D1
:1002000008950E94D000089583E066E041E00E94D6
:100210007E0583E066E040E00E945F0683E991E1AD
:100220000197F1F700C0000083E066E041E00E9422
:100230005F0696E09A95F1F700C083E066E040E043
:100240000E947E05089583E066E00E94EE06882302
:10025000D1F783E066E00E94EE068823D1F383E0C5
:1002600066E00E94EE068823D1F70895AF92BF9210
:10027000CF92DF92EF92FF920F931F93CF93DF9372
:1002800000D000D00F92CDB7DEB70E9404010E94CB
:100290002301FE01319685E0DF011D928A95E9F781
:1002A0007F010F2EF6E0CF2EDD24F02DCC0EDD1ECB
:1002B000AA24BB246894A3F828C083E066E00E94C7
:1002C000EE068823D1F3BAE0BA95F1F783E066E051
:1002D0000E94EE06813031F4F7018081880F816041
:1002E000808304C0D7018C91880F8C9383E066E0F3
:1002F0000E94EE068823D1F701501040F1F60894D1
:10030000E11CF11CEC14FD0411F08501D6CF3981FC
:10031000309373044A81409370042B8120937204BC
:100320008C81809374049D8190937104340F230F0A
:10033000280F81E0921380E00F900F900F900F90A4
:100340000F90DF91CF911F910F91FF90EF90DF9071
:10035000CF90BF90AF90089540E00E947E05089531
:1003600042E00E947E0508950E94EE0608950E94D4
:10037000EE0691E0811190E0892F089580E060E021
:1003800041E00E947E0580E061E041E00E947E0540
:1003900080E062E041E00E947E0580E063E041E0B1
:1003A0000E947E0580E064E040E00E947E0580E0DF
:1003B00065E040E00E947E0580E066E040E00E944B
:1003C0007E0580E067E040E00E947E0580E064E01A
:1003D00042E00E947E0580E065E042E00E947E05EA
:1003E00080E066E042E00E947E0580E067E042E057
:1003F0000E947E0508950F931F93CF93DF93CDB78F
:10040000DEB760970FB6F894DEBF0FBECDBFDE013A
:100410001196E0E6F0E080E101900D928150E1F765
:1004200000E080E060E041E00E945F0680E061E083
:1004300041E00E945F0680E062E041E00E945F06CA
:1004400080E063E041E00E945F0680E0602F40E0D2
:100450000E945F0610E0612F6C5F80E00E94EE0654
:10046000882361F4E02FF0E0EE0FFF1FEE0FFF1F77
:10047000E10FF11DEC0FFD1F818104C01F5F1430DF
:1004800051F70BC060960FB6F894DEBF0FBECDBF1C
:10049000DF91CF911F910F9108950F5F043009F6FE
:1004A0008FEFF0CFCF93C82F81E061E040E00E9452
:1004B0005F06000081E060E041E00E945F0600000E
:1004C0004C2F42954F70417082E064E00E945F06BD
:1004D0004C2F429546954770417082E065E00E943E
:1004E0005F064C2F4295469546954370417082E0D9
:1004F00066E00E945F064C2F441F4427441F82E0A1
:1005000067E00E945F0689EF90E00197F1F700C075
:10051000000081E060E040E00E945F06000081E0B2
:1005200060E041E00E945F0600004C2F417082E0D5
:1005300064E00E945F064C2F4695417082E065E0C2
:100540000E945F064C2F46954695417082E066E01A
:100550000E945F06C695C695C6954C2F417082E0F5
:1005600067E00E945F0689EF90E00197F1F700C015
:10057000000081E060E040E00E945F060000CF9153
:10058000089581E061E041E00E947E0581E060E045
:1005900041E00E947E0587E893E10197F1F700C0F2
:1005A000000082E064E041E00E947E0582E065E0B8
:1005B00041E00E947E0582E066E041E00E947E0507
:1005C00082E067E041E00E947E0587E893E10197C1
:1005D000F1F700C0000083E30E94520282E30E9410
:1005E000520288E20E9452028CE00E94520281E094
:1005F0000E94520287E893E10197F1F700C00000E2
:100600000895CF93C82F81E061E041E00E945F062A
:1006100089EF90E00197F1F700C0000081E060E011
:1006200041E00E945F0689EF90E00197F1F700C07A
:1006300000004C2F42954F70417082E064E00E94B0
:100640005F064C2F429546954770417082E065E009
:100650000E945F064C2F4295469546954370417027
:1006600082E066E00E945F064C2F441F4427441F2F
:1006700082E067E00E945F0689EF90E00197F1F762
:1006800000C0000081E060E040E00E945F060000E2
:1006900081E060E041E00E945F0600004C2F417065
:1006A00082E064E00E945F064C2F4695417082E034
:1006B00065E00E945F064C2F46954695417082E0AA
:1006C00066E00E945F06C695C695C6954C2F4170A0
:1006D00082E067E00E945F0689EF90E00197F1F702
:1006E00000C0000081E060E040E00E945F06000082
:1006F000CF9108950F931F93CF938C01FC018081BC
:10070000882351F0C0E00E940103CF5FF801EC0F95
:10071000F11D80818823B9F7CF911F910F91089522
:10072000CF93DF93CDB7DEB760970FB6F894DEBFF7
:100730000FBECDBFBE016F5F7F4F4AE050E00E9409
:100740008E15CE0101960E947A0360960FB6F8943A
:10075000DEBF0FBECDBFDF91CF910895813039F05C
:10076000813070F0823031F0833059F406C0962F1A
:10077000905C07C0962F905F04C0962F905C01C0DC
:10078000962F892F80680E9452020895CF93DF939D
:10079000EA010E94AE03CE010E947A03DF91CF915D
:1007A000089581E00E94520283EC99E00197F1F7ED
:1007B00000C0000008950F931F93CF93DF93082F7D
:1007C000192F862F8770880F880F880F80640E94EA
:1007D0005202C02FD12F10E089910E9401031F5FA8
:1007E0001830D1F780E060E00E94AE03DF91CF9136
:1007F0001F910F9108958CE00E94520208958EE09F
:100800000E945202089541E00E947E05089541E051
:100810000E945F06089540E00E945F0608950E94CE
:10082000270708950E94500608950E94DF06089544
:100830000E941D0708950E94620708951F93CF9399
:10084000DF93982F162FD42FC22F80E0692F0E949C
:10085000500681E0612F0E94500682E06D2F0E94B9
:10086000500683E06C2F0E945006DF91CF911F91BC
:1008700008951F93CF93DF93982F162FD42FC22F55
:1008800080E0692F0E94DF0681E0612F0E94DF0671
:1008900082E06D2F0E94DF0683E06C2F0E94DF064E
:1008A000DF91CF911F91089521E131E141E95DE3AD
:1008B0000E94EA1420E030E049E951E40E94331339
:1008C0000E940814862F0E94820A089583E067E040
:1008D00041E00E947E050E94FA090E94330A0895B1
:1008E0000F931F93CF93DF9383E067E041E00E9473
:1008F0005F0686E08A95F1F700C083E067E040E09C
:100900000E945F060E943F0A0E948C0B8823E1F33D
:100910000E94860BEC010E94890B0E943B0A0E94F8
:100920008C0B8823E1F30E94860B8C010E94890BBB
:10093000C017D10718F40C1B1D0B06C06AB57BB598
:100940006C1B7D0B060F171FB80180E090E020E4C0
:1009500039E344E050E00E944D1520E834E84EE1D0
:1009600050E00E946C15822F932FDF91CF911F9141
:100970000F9108953F983E9A3D9886B1887F86B939
:1009800086B1866086B9359880B78F7180BF80B791
:10099000806480BF359A379A349A339A8FB78068CB
:1009A0008FBF089597B1907E97B997B1892B87B97A
:1009B000369A86B1829586958695837080FF0CC0A5
:1009C00080E08F5F96B196FF05C08436D1F780E056
:1009D00090E00895843618F484B195B1089580E0CC
:1009E00090E0089597B1907E97B997B1892B87B918
:1009F000369A86B1829586958695837080FF0BC066
:100A000080E08F5F96B196FF04C08436D1F780E016
:100A10000895843638F484B195B196958795969566
:100A20008795089580E0089597B1907E97B997B122
:100A3000892B87B9369A089586B1829586958695D1
:100A4000837080FF0CC080E08F5F96B196FF05C079
:100A50008436D1F780E090E00895843618F484B1AC
:100A600095B1089580E090E00895379A08953798F9
:100A70000895339A089533980895009759F06115B1
:100A8000710541F0909321018093200170931F0123
:100A900060931E0108951F920F920FB60F921124BA
:100AA0002F933F934F935F936F937F938F939F9376
:100AB000AF93BF93EF93FF93E0911E01F0911F015D
:100AC000309721F084B195B191838083E09120012A
:100AD000F0912101309709F00995FF91EF91BF91B5
:100AE000AF919F918F917F916F915F914F913F91C6
:100AF0002F910F900FBE0F901F901895413009F065
:100B00003BC0813091F0813018F0823041F51AC03D
:100B10002AB381E090E0AC0102C0440F551F6A95F2
:100B2000E2F7BA01622B6ABB089527B381E090E037
:100B3000AC0102C0440F551F6A95E2F7BA01622B5F
:100B400067BB089524B381E090E0AC0102C0440F7C
:100B5000551F6A95E2F7BA01622B64BB089521B371
:100B600081E090E0AC0102C0440F551F6A95E2F7A6
:100B7000BA01622B61BB0895423009F04FC0813049
:100B8000B9F0813018F08230B9F524C02AB381E081
:100B900090E0AC0102C0440F551F6A95E2F7BA011C
:100BA000842F809582238ABB8BB3682B6BBB0895FF
:100BB00027B381E090E0AC0102C0440F551F6A9555
:100BC000E2F7BA01842F8095822387BB88B3682B14
:100BD00068BB089524B381E090E0AC0102C0440FEB
:100BE000551F6A95E2F7BA01842F8095822384BB52
:100BF00085B3682B65BB089521B381E090E0AC011B
:100C000002C0440F551F6A95E2F7BA01842F809500
:100C1000822381BB82B3682B62BB0895442309F011
:100C20003EC0813099F0813018F0823059F51CC0F7
:100C30002AB381E090E0AC0102C0440F551F6A95D1
:100C4000E2F7BA01609562236ABB089527B381E099
:100C500090E0AC0102C0440F551F6A95E2F7BA015B
:100C60006095622367BB089524B381E090E0AC01F6
:100C700002C0440F551F6A95E2F7BA0160956223DE
:100C800064BB089521B381E090E0AC0102C0440F41
:100C9000551F6A95E2F7BA016095622361BB08951A
:100CA000813039F0813018F0823039F404C06ABBE9
:100CB000089567BB089564BB089561BB08954130F2
:100CC00009F03BC0813091F0813018F0823041F55D
:100CD0001AC02BB381E090E0AC0102C0440F551F55
:100CE0006A95E2F7BA01622B6BBB089528B381E0E5
:100CF00090E0AC0102C0440F551F6A95E2F7BA01BB
:100D0000622B68BB089525B381E090E0AC0102C07E
:100D1000440F551F6A95E2F7BA01622B65BB08952F
:100D200022B381E090E0AC0102C0440F551F6A95E8
:100D3000E2F7BA01622B62BB0895442309F03EC07A
:100D4000813099F0813018F0823059F51CC02BB3F6
:100D500081E090E0AC0102C0440F551F6A95E2F7B4
:100D6000BA01609562236BBB089528B381E090E0DF
:100D7000AC0102C0440F551F6A95E2F7BA016095B5
:100D8000622368BB089525B381E090E0AC0102C006
:100D9000440F551F6A95E2F7BA016095622365BB5F
:100DA000089522B381E090E0AC0102C0440F551FCA
:100DB0006A95E2F7BA016095622362BB08958130BB
:100DC00039F0813018F0823039F404C06BBB0895DB
:100DD00068BB089565BB089562BB0895813079F0C2
:100DE000813018F08230F9F414C029B330E0C90121
:100DF00002C0959587956A95E2F78170089526B3AC
:100E000030E0C90102C0959587956A95E2F7817037
:100E1000089523B330E0C90102C0959587956A957E
:100E2000E2F78170089520B330E0C90102C09595C2
:100E300087956A95E2F781700895813031F08130AD
:100E400010F083B3089589B3089586B3089581306F
:100E500091F0813018F0823041F51AC02BB381E057
:100E600090E0AC0102C0440F551F6A95E2F7BA0149
:100E700062276BBB089528B381E090E0AC0102C00B
:100E8000440F551F6A95E2F7BA01622768BB0895BF
:100E900025B381E090E0AC0102C0440F551F6A9574
:100EA000E2F7BA01622765BB089522B381E090E0C2
:100EB000AC0102C0440F551F6A95E2F7BA016227E0
:100EC00062BB0895813049F0813018F0823069F4B6
:100ED00008C08BB380958BBB089588B3809588BB81
:100EE000089585B3809585BB089582B3809582BBB4
:100EF00008958EBB9FBB6DBBE29AE19A8CB381FDD6
:100F0000FDCF08958EBB9FBBE09A8DB308958FB738
:100F10008F778FBF8BB78F7B8BBF8BB78F778BBF55
:100F20008BB78F7D8BBF83E062E042E00E947E053D
:100F300085B78D7F85BF85B7816085BF8AB780649F
:100F40008ABF8BB780648BBF8FB780688FBF0895CF
:100F5000813049F0813018F0823061F408C08BB7DD
:100F60008F7B8BBF08958BB78F778BBF08958BB71F
:100F70008F7D8BBF0895813049F0813018F0823029
:100F800061F408C08BB780648BBF08958BB780680D
:100F90008BBF08958BB780628BBF0895613061F17C
:100FA000613020F0623009F058C04BC0813079F0D8
:100FB000813030F0823091F0833009F04EC015C09E
:100FC00085B78D7F85BF85B78E7F85BF089585B72F
:100FD0008D7F85BF85B7816085BF089585B78260A5
:100FE00085BF85B78E7F85BF089585B7826085BF31
:100FF00085B7816085BF0895813071F0813028F018
:10100000823089F0833049F515C085B7877F85BF69
:1010100085B78B7F85BF089585B7877F85BF85B7E7
:10102000846085BF089585B7886085BF85B78B7F4D
:1010300085BF089585B7886085BF85B7846085BF03
:101040000895823019F0833041F404C084B78F7B57
:1010500084BF089584B7806484BF0895009751F0D9
:10106000633040F4E62FF0E0EE0FFF1FEE5DFE4F21
:101070009183808308951F920F920FB60F921124CF
:101080002F933F934F935F936F937F938F939F9390
:10109000AF93BF93EF93FF93E0912201F09123016F
:1010A000309709F00995FF91EF91BF91AF919F9112
:1010B0008F917F916F915F914F913F912F910F9001
:1010C0000FBE0F901F9018951F920F920FB60F92A0
:1010D00011242F933F934F935F936F937F938F933D
:1010E0009F93AF93BF93EF93FF93E0912401F0910F
:1010F0002501309709F00995FF91EF91BF91AF91CC
:101100009F918F917F916F915F914F913F912F911F
:101110000F900FBE0F901F9018951F920F920FB651
:101120000F9211242F933F934F935F936F937F936D
:101130008F939F93AF93BF93EF93FF93E09126011B
:10114000F0912701309709F00995FF91EF91BF9138
:10115000AF919F918F917F916F915F914F913F914F
:101160002F910F900FBE0F901F9018958FB780682A
:101170008FBF08958FB78F778FBF089583B7877F0D
:1011800083BF83B78F7B83BF83B78F7D83BF83B7D5
:101190008F7E83BF12BE88B7816088BF89B78160A8
:1011A00089BF8FB780688FBF83B7887F83BF83B7BE
:1011B000846083BF08958CBF089582BF089582B76D
:1011C000089589B78E7F89BF089589B7816089BFE7
:1011D000089589B78D7F89BF089589B7826089BFD7
:1011E000089522B78091280190912901A0E0B0E0F4
:1011F0006627782F892F9A2F620F711D811D911DEF
:101200000E9434142FE632E143E05DE30E94EA14C9
:101210000E940814089512BE10922901109228010C
:1012200008954F925F926F927F928F929F92AF92AA
:10123000BF92CF92DF92EF92FF920F931F93CF93C3
:10124000DF930E94341420E034E244EF5AE40E9419
:10125000EA1420E030E04AE75CE40E949B13D62FBA
:10126000C72F182F092F762E672E582E492E862F1E
:101270009C2FA12FB02FBC01CD010E9408144B015F
:101280005C010E9434146B017C018D2F9C2FA12FD7
:10129000B02FBC01CD01A70196010E9432139B0122
:1012A000AC0160E070E080E89FE30E94321320E030
:1012B00030E040E853E40E94EA140E94081462BF40
:1012C0008D2F9C2FA12FB02FBC01CD01A70196011E
:1012D0000E94E614181664F4C501B4016F5F7F4FD5
:1012E0008F4F9F4F0E943414762E672E582E492E12
:1012F000872D962DA52DB42DBC01CD010E9408147B
:10130000862F972FDF91CF911F910F91FF90EF9034
:10131000DF90CF90BF90AF909F908F907F906F9015
:101320005F904F90089590932D0180932C01089524
:10133000009721F090932B0180932A0108951F922A
:101340000F920FB60F9211242F933F934F935F93F9
:101350006F937F938F939F93AF93BF93EF93FF937D
:10136000E0912A01F0912B01309709F00995FF9146
:10137000EF91BF91AF919F918F917F916F915F910D
:101380004F913F912F910F900FBE0F901F90189586
:101390001F920F920FB60F9211242F933F934F93EA
:1013A0005F936F937F938F939F93AF93BF93EF93CD
:1013B000FF93E0912C01F0912D01309709F00995F0
:1013C00080912801909129010196909329018093A1
:1013D0002801FF91EF91BF91AF919F918F917F91E4
:1013E0006F915F914F913F912F910F900FBE0F9092
:1013F0001F9018958FB58C7F8FBD8EB5877E8EBD63
:101400008FB583608FBD8EB588618EBD8FB58F77A8
:101410008FBD8FB58F7B8FBD8FB580628FBD8FB530
:101420008F7E8FBD8C9A1DBC1CBC80E29EE49BBD50
:101430008ABD8CED95E099BD88BD88B7846088BF72
:1014400089B7846089BF8FB780688FBF89B78F7E67
:1014500089BF89B7877F89BF8EB5887F8EBD8EB5DE
:1014600082608EBD08958EB58F778EBD8EB58064F7
:101470008EBD8E9808958EB58F7B8EBD08958EB5E6
:1014800080648EBD08959BBD8ABD089599BD88BDB9
:1014900008959DBD8CBD08958CB59DB5089581308E
:1014A00059F0813028F0823059F0833081F40CC03B
:1014B00089B78B7F89BF089589B78F7E89BF0895CB
:1014C00089B7877F89BF089589B78F7D89BF0895C0
:1014D000813059F0813028F0823059F0833081F426
:1014E0000CC089B7846089BF089589B7806189BFBE
:1014F000089589B7886089BF089589B7806289BFD8
:10150000089508952AB53BB5682F70E080E090E01B
:1015100040E050E00E944D152FEF30E040E050E0F9
:101520000E946C1539BD28BD08950F931F938CB58B
:101530009DB540912E0150912F0160E070E0BA01FD
:1015400055274427A0E0B0E08A019B01080F191F2E
:101550002A1F3B1FC901B8010E9434142FE632E153
:1015600043E85AE30E94EA140E9408141F910F9165
:1015700008951DBC1CBC10922F0110922E010895DD
:101580006F927F928F929F92AF92BF92CF92DF9293
:10159000EF92FF920F931F93CF93DF93CAB5DBB502
:1015A000BC0180E090E00E94341420E034E244EF7B
:1015B0005AE40E94EA146B017C01CC0FDD1FCC0FB2
:1015C000DD1FCC0FDD1FBE0180E090E00E943414CF
:1015D00020E030E04AE754E40E94EA149B01AC01A9
:1015E000C701B6010E949B13C62FD72F182F092FB2
:1015F000B62EA72E982E892E6AB47BB4862F9D2FE7
:10160000A12FB02FBC01CD010E94081480E090E012
:101610000E9434149B01AC018C2F9D2FA12FB02F61
:10162000BC01CD010E9432139B01AC0160E070E06F
:1016300080E89FE30E9432136B017C01B30180E0DC
:1016400090E00E9434149B01AC01C701B6010E94D6
:10165000EA140E9408148AB59BB58617970711F4FF
:1016600060E070E07DBD6CBD8C2F9D2FA12FB02F51
:10167000BC01CD010E940314DC01CB017C01B70148
:10168000882777FD8095982F0E943614512F402F80
:101690000C2F1D2F252F342FA90198010E9497137D
:1016A000882374F40894E11CF11CB701882777FDA6
:1016B0008095982F0E943614B62EA72E982E892E2C
:1016C0008B2D9A2DA92DB82DBC01CD010E94081497
:1016D000862F972FDF91CF911F910F91FF90EF9061
:1016E000DF90CF90BF90AF909F908F907F906F9042
:1016F0000895009751F0643040F4E62FF0E0EE0FCB
:10170000FF1FE05DFE4F91838083089586B597B5F6
:10171000089580E288BF089588B7807208951F9267
:101720000F920FB60F9211242F933F934F935F9315
:101730006F937F938F939F93AF93BF93EF93FF9399
:10174000E0913001F0913101309709F00995FF9156
:10175000EF91BF91AF919F918F917F916F915F9129
:101760004F913F912F910F900FBE0F901F901895A2
:101770001F920F920FB60F9211242F933F934F9306
:101780005F936F937F938F939F93AF93BF93EF93E9
:10179000FF93E0913201F0913301309709F0099500
:1017A000FF91EF91BF91AF919F918F917F916F9139
:1017B0005F914F913F912F910F900FBE0F901F900F
:1017C00018951F920F920FB60F9211242F933F93EB
:1017D0004F935F936F937F938F939F93AF93BF9339
:1017E000EF93FF93E0913401F0913501309709F0C8
:1017F0000995FF91EF91BF91AF919F918F917F914B
:101800006F915F914F913F912F910F900FBE0F906D
:101810001F9018951F920F920FB60F9211242F93BD
:101820003F934F935F936F937F938F939F93AF9368
:10183000BF93EF93FF93E0913601F091370130971A
:1018400009F00995FF91EF91BF91AF919F918F9111
:101850007F916F915F914F913F912F910F900FBEAC
:101860000F901F90189585B5886085BD85B58064FB
:1018700085BD85B5806285BD85B58F7E85BD8F9A16
:1018800013BC85B5887F85BD85B5866085BD089507
:1018900083BD089584BD089584B5089589B78F7B6D
:1018A00089BF089589B7806489BF089589B78F7704
:1018B00089BF089589B7806889BF089583BD089559
:1018C000009721F090933D0180933C01089500978B
:1018D00021F090933B0180933A0108951F920F925B
:1018E0000FB60F9211242F933F934F935F936F93F3
:1018F0007F938F939F93AF93BF93EF93FF93E09169
:101900003A01F0913B01309709F00995FF91EF9171
:10191000BF91AF919F918F917F916F915F914F9107
:101920003F912F910F900FBE0F901F9018951F920F
:101930000F920FB60F9211242F933F934F935F9303
:101940006F937F938F939F93AF93BF93EF93FF9387
:10195000E0913C01F0913D01309709F00995FF912C
:10196000EF91BF91AF919F918F917F916F915F9117
:101970004F913F912F910F900FBE0F901F90189590
:1019800010BC83E389B98BB1837E8BB95898599881
:10199000529886E880BD549A5398579A8FB78068BA
:1019A0008FBF569855980895813039F0813018F0DE
:1019B000823031F404C05698089557980895559888
:1019C0000895813039F0813018F0823031F404C04C
:1019D000569A0895579A0895559A08955F990FC099
:1019E00080E090E001965F9906C027E2803192077F
:1019F000C9F78FE3089527E28031920711F08CB187
:101A000008958FE30895EF92FF920F931F93CF9362
:101A1000DF93EB01209781F0E82EF92E00E010E033
:101A20000E94EE0CF70181937F01882329F00F5F5C
:101A30001F4F0C171D07A1F7DF91CF911F910F9139
:101A4000FF90EF9008950F931F93CF93DF93EC01D6
:101A50008881882361F08E010F5F1F4F0E94EE0C7A
:101A60008883E8010F5F1F4F88818823B9F71882A8
:101A7000DF91CF911F910F9108958BB1881F882717
:101A8000881F08950F931F93CF93DF938C01D62F58
:101A9000C0E00E943D0D8823E1F30E94EE0CF801A6
:101AA000EC0FF11D8083882319F08D1729F402C0F3
:101AB0008D1721F4108202C0CF5FEBCFDF91CF9161
:101AC0001F910F9108958BB18C7108956115710567
:101AD00089F0009779F090933F0180933E017093D5
:101AE0004101609340014093770420937604109263
:101AF00078040895579808951F920F920FB60F9289
:101B000011242F933F934F935F936F937F938F9302
:101B10009F93AF93BF93EF93FF939CB18091780411
:101B2000E0914001F0914101E80FF11D9083809117
:101B300078048F5F8093780420917704821730F4C3
:101B4000992381F0309176049317A9F4992351F0E9
:101B5000821740F4E0914001F0914101E80FF11D3E
:101B60003197108210927804E0913E01F0913F018C
:101B7000309709F00995FF91EF91BF91AF919F9137
:101B80008F917F916F915F914F913F912F910F9026
:101B90000FBE0F901F9018958091F80080931A0146
:101BA00081E0809343010895809144019091450123
:101BB0000196909345018093440120914401309116
:101BC000450180914601909147012817390730F06F
:101BD00010924501109244010E94950E0895CF93F2
:101BE000DF93C8EFD0E0CE010E947A038CEC9DE039
:101BF000BE0141E02AE30E94660D81E0809343012B
:101C0000DF91CF910895CF93DF938091440190911C
:101C10004501019690934501809344012091440130
:101C2000309145018091460190914701281739076D
:101C300008F478C01092450110924401809143014C
:101C4000882309F065C080911C018C3309F464C0BD
:101C500081E080934201C0914801D0E00E94F108E8
:101C6000CC0FDD1FCC0FDD1FC75BDE4F2AE030E05D
:101C700040E050E00E946C15922F9295990F990FB9
:101C8000907C88818F73892B8883832F8295880F1E
:101C9000880F807C26952695282B2983842F829572
:101CA000880F880F807C36953695382B3A8352956D
:101CB000550F550F507C46954695452B4B830E94FA
:101CC0000B0980E061E00E94D00080914801E82F7C
:101CD000F0E0EE0FFF1FEE0FFF1FE75BFE4F3091AE
:101CE0001C0137709081907C20911B012770220F7E
:101CF000220F220F932B922B90838F5F80934801AA
:101D000084ED9DE00E9493098FEF0E94DD080AC0D8
:101D100080911C018C3321F481E08093430102C047
:101D200010924301DF91CF910895E0914801EE2395
:101D300009F46AC0E150E093480180911C018C33A2
:101D400009F481C0F0E0EE0FFF1FEE0FFF1FE75B0D
:101D5000FE4F6081669566956695677070E080E0DD
:101D600090E00E94361420E030E04AE252E40E9403
:101D7000EA140E940814862F0E945E0CE09148012C
:101D8000F0E0EE0FFF1FEE0FFF1FE75BFE4F4081FD
:101D9000477080E061E00E94ED00E0914801F0E0D2
:101DA000EE0FFF1FEE0FFF1FE75BFE4F6081629596
:101DB0006695669563707181872F880F880F682BF1
:101DC00072957695769573708281982F990F990FF9
:101DD000792B82958695869583709381292F220F82
:101DE000220F822B92959695969593702AE030E07B
:101DF00040E050E00E944D1593700E9411099093AD
:101E0000470180934601089580E061E00E94D00080
:101E100080E380931A018CE380931C0110924201AD
:101E20000E940B0981E08093430168E873E180E040
:101E300090E00E941109909347018093460183E04E
:101E40009EE00E9493090895CF93DF9380911C0137
:101E50008C3309F452C0C0914801D0E00E94F108CF
:101E6000CC0FDD1FCC0FDD1FC75BDE4F2AE030E05B
:101E700040E050E00E946C15922F9295990F990FB7
:101E8000907C88818F73892B8883832F8295880F1C
:101E9000880F807C26952695282B2983842F829570
:101EA000880F880F807C36953695382B3A8352956B
:101EB000550F550F507C46954695452B4B830E94F8
:101EC0000B0980914801E82FF0E0EE0FFF1FEE0FA5
:101ED000FF1FE75BFE4F30911C0137709081907CB3
:101EE00020911B012770220F220F220F932B922B80
:101EF00090838F5F8093480102C00E940B09DF919D
:101F0000CF91089584B7806884BF84B7806884BF08
:101F100080E062E040E021E00E94490081E062E070
:101F200042E023E00E94490083E066E041E00E9435
:101F30007E050E94C00C0E94330C0E94BE010E94CC
:101F4000BE080E94C1020E94FF0380E065E00E947B
:101F5000AE0380E790E00E947A038FEF99E6A8E154
:101F600081509040A040E1F700C000000E94D103E2
:101F70000E94FA0960E070E084EB92EC0E94540445
:101F80008FEF94E3ACE081509040A040E1F700C0B7
:101F9000000060E070E084EB92E40E9454046091E1
:101FA0001B0170E080E090E00E94361420E030E0F9
:101FB0004AE252E40E94EA140E940814862F0E940A
:101FC0005E0C8CEC9DE068EF70E041E02AE30E943B
:101FD000660D0E940B0968E873E180E090E00E94C2
:101FE0001109909347018093460183E09EE00E948F
:101FF000930980E290E00E9482078F3F09F05AC067
:1020000087E790E00E947A03C1E2D0E00E94FB01E2
:10201000182F8F3FD9F30E9401038091690490919A
:102020006A04880F991F9C01220F331F220F331F50
:10203000820F931FC097810F911D90936A04809324
:1020400069048FEF92E5A7E081509040A040E1F74E
:1020500000C000006C2F685180E00E94AE038AE24D
:102060000E9401038FEF94E3ACE081509040A040C8
:10207000E1F700C00000CE01612F0E947907219690
:10208000C532D10519F680E290E060E00E94790740
:102090000E94D10381E890E00E947A038FEF99E6D5
:1020A000A8E181509040A040E1F700C000000E94EC
:1020B000D10344C082E290E00E948207D82F81E2DF
:1020C00090E00E948207C82F83E290E00E9482077E
:1020D0004D2F50E024E630E0429FF001439FF00D89
:1020E000529FF00D11242C2F30E02053304048EE49
:1020F00053E0249FB001259F700D349F700D112473
:102100006E0F7F1F282F30E0220F331FC901880F69
:10211000991F880F991F280F391F620F731FEB013A
:10212000C05AD44184E290E00E94820790E0C097B8
:10213000C80FD91FD0936A04C093690410E00F2E12
:10214000F0E3FF2EF02D0F2EF3EC8F2EF0E09F2EFC
:10215000F02D0F2EF2ED6F2EF0E07F2EF02D0F2ED2
:10216000FCED4F2EF0E05F2EF02D0F2EF5EBCF2E75
:10217000F0E0DF2EF02D0F2EFDE92F2EF0E03F2EA8
:10218000F02D0F2EF1E9AF2EF0E0BF2EF02D809153
:102190004201882309F01FC180911A01863309F496
:1021A00064C0873380F48333E1F1843330F48133C6
:1021B00001F1823309F00FC128C08433F1F1853376
:1021C00009F009C146C0893309F48AC08A3338F45A
:1021D000873309F466C0883309F0FDC07EC08636B7
:1021E00009F4F2C08F3609F4E7C08B3309F0F3C06D
:1021F00082C080E061E00E94BC000E94240F82E364
:1022000080931C01F0921A01E6C080E061E00E9418
:10221000C6000E94240F81E380931C01F0921A01F2
:10222000DAC080E061E00E94D0000E94240F83E3C6
:1022300080931C01F0921A01CEC080E061E00E9400
:10224000DA000E94240F85E380931C01F0921A01AA
:10225000C2C080E061E00E94E4000E94240F84E399
:1022600080931C01F0921A01B6C060911B01663088
:10227000A8F46F5F60931B0170E080E090E00E9423
:10228000361420E030E04AE252E40E94EA140E9450
:102290000814862F0E945E0C0E94240FF0921A01EF
:1022A0009AC060911B016430A8F0615060931B01DB
:1022B00070E080E090E00E94361420E030E04AE2D6
:1022C00052E40E94EA140E940814862F0E945E0CB9
:1022D0000E94240FF0921A017EC00E94D1037BC09D
:1022E0008FEE9DE068EF70E042E22AE30E94660D07
:1022F000F0921A0170C081E080934201C0914801C0
:10230000D0E00E94F108CC0FDD1FCC0FDD1FC75BB2
:10231000DE4F2AE030E040E050E00E946C15922F42
:102320009295990F990F907C88818F73892B888360
:10233000832F8295880F880F807C26952695282BE1
:102340002983842F8295880F880F807C3695369557
:10235000382B3A835295550F550F507C469546952C
:10236000452B4B830E940B0980E061E00E94D00066
:1023700020914801822F90E0880F991F880F991FA4
:10238000FC01E75BFE4F30911C0137708081807C3F
:1023900090911B019770990F990F990F832B892B9F
:1023A00080832F5F2093480184ED9DE00E94930974
:1023B0008FEF0E94DD080FC083E066E041E00E94DD
:1023C0005F06F0921A0107C083E066E040E00E94D9
:1023D0005F06F0921A010E94FB01809379048F3FFF
:1023E00009F4D5CE8A3209F479C080916B049091BA
:1023F0006C04009729F40E94D103C5010E947A035E
:10240000409179044D33B9F580916B0490916C043F
:102410002091690430916A0482179307E9F40E94BD
:10242000D103C1010E947A0381E063E00E94AE0300
:102430008AEA90E00E947A038FEF92E5A7E081504C
:102440009040A040E1F700C0000060E070E084EB45
:1024500092EC0E94540409C00E94D103C6010E945C
:102460007A0381E060E00E94AE0310926C04109247
:102470006B0410E029C080916B0490916C04880F6C
:10248000991F9C01220F331F220F331F820F931FAE
:10249000840F911DC09790936C0480936B04842FDC
:1024A0000E9401038FEF92E5A7E081509040A04089
:1024B000E1F700C00000612F655F80E00E94AE037D
:1024C0008AE20E9401031F5F8FE798E3A1E0815039
:1024D0009040A040E1F700C0000059CE0E94D10317
:1024E000C4010E947A038FEF99E6A8E181509040E1
:1024F000A040E1F700C000000E94D103C3010E9488
:102500007A0310926C0410926B04D9E00E94FB01D4
:10251000C82F8F3FD9F380E06D2F0E94AE038C2F20
:102520000E9401038FEF92E5A7E081509040A04008
:10253000E1F700C0000080916B0490916C04880F5B
:10254000991F9C01220F331F220F331F820F931FED
:10255000C0978C0F911D90936C0480936B04DF5F88
:10256000DD30A1F62091690430916A048217930747
:1025700031F00E94D103C2010E947A036DC0109213
:102580006A04109269040E94D1038BEE90E00E94CD
:102590007A0380E06CE00E94AE038FEF99E6A8E139
:1025A00081509040A040E1F700C0000001E210E03F
:1025B0000E94FB01C82F8F3FD9F30E940103809135
:1025C000690490916A04880F991F9C01220F331FA0
:1025D000220F331F820F931FC0978C0F911D909372
:1025E0006A04809369048FEF92E5A7E081509040E0
:1025F000A040E1F700C00000602F655180E00E941C
:10260000AE038AE20E9401038FEF94E3ACE08150B5
:102610009040A040E1F700C00000C8016C2F0E946C
:1026200079070F5F1F4F0532110511F680E290E028
:1026300060E00E9479070E94D10381E890E00E9447
:102640007A038FEF99E6A8E181509040A040E1F72E
:1026500000C000000E94D10310926C0410926B0421
:1026600010E095CD5058BB27AA270ED075C166D172
:1026700030F06BD120F031F49F3F11F41EF45BC1B8
:102680000EF4E095E7FB51C1E92F77D180F3BA173B
:10269000620773078407950718F071F49EF58FC1E0
:1026A0000EF4E0950B2EBA2FA02D0B01B90190016D
:1026B0000C01CA01A0011124FF27591B99F0593FB1
:1026C00050F4503E68F11A16F040A22F232F342FF9
:1026D0004427585FF3CF469537952795A795F04047
:1026E0005395C9F77EF41F16BA0B620B730B840B5C
:1026F000BAF09150A1F0FF0FBB1F661F771F881F14
:10270000C2F70EC0BA0F621F731F841F48F487956B
:1027100077956795B795F7959E3F08F0B3CF93955A
:10272000880F08F09927EE0F979587950895D9D0CF
:1027300008F481E008950CD00FC107D140F0FED01D
:1027400030F021F45F3F19F0F0C0511139C1F3C0EE
:1027500014D198F39923C9F35523B1F3951B550B65
:10276000BB27AA2762177307840738F09F5F5F4F64
:10277000220F331F441FAA1FA9F333D00E2E3AF0A5
:10278000E0E830D091505040E695001CCAF729D0BF
:10279000FE2F27D0660F771F881FBB1F261737070E
:1027A0004807AB07B0E809F0BB0B802DBF01FF273E
:1027B00093585F4F2AF09E3F510568F0B6C000C1A4
:1027C0005F3FECF3983EDCF3869577956795B79578
:1027D000F7959F5FC9F7880F911D9695879597F993
:1027E0000895E1E0660F771F881FBB1F621773070C
:1027F0008407BA0720F0621B730B840BBA0BEE1F21
:1028000088F7E095089504D06894B111D9C008956F
:10281000BCD088F09F5790F0B92F9927B751A0F0FE
:10282000D1F0660F771F881F991F1AF0BA95C9F764
:1028300012C0B13081F0C3D0B1E00895C0C0672F9D
:10284000782F8827B85F39F0B93FCCF38695779514
:102850006795B395D9F73EF49095809570956195FD
:102860007F4F8F4F9F4F0895E89409C097FB3EF428
:1028700090958095709561957F4F8F4F9F4F9923CD
:10288000A9F0F92F96E9BB279395F695879577954B
:102890006795B795F111F8CFFAF4BB0F11F460FF0B
:1028A0001BC06F5F7F4F8F4F9F4F16C0882311F063
:1028B00096E911C0772321F09EE8872F762F05C077
:1028C000662371F096E8862F70E060E02AF09A9512
:1028D000660F771F881FDAF7880F9695879597F907
:1028E0000895990F0008550FAA0BE0E8FEEF1616A1
:1028F0001706E807F907C0F012161306E407F507F4
:1029000098F0621B730B840B950B39F40A2661F067
:10291000232B242B252B21F408950A2609F4A1400A
:10292000A6958FEF811D811D089597F99F6780E817
:1029300070E060E008959FEF80EC089500240A9411
:102940001616170618060906089500240A9412168A
:102950001306140605060895092E0394000C11F4BD
:10296000882352F0BB0F40F4BF2B11F460FF04C06A
:102970006F5F7F4F8F4F9F4F089557FD9058440FC3
:10298000551F59F05F3F71F04795880F97FB991FCE
:1029900061F09F3F79F0879508951216130614068B
:1029A000551FF2CF4695F1DF08C016161706180618
:1029B000991FF1CF86957105610508940895E894F3
:1029C000BB2766277727CB0197F908958ADF08F49C
:1029D0008FEF08950BD0C0CFB1DF28F0B6DF18F02D
:1029E000952309F0A2CFA7CF1124EACFC6DFA0F329
:1029F000959FD1F3950F50E0551F629FF001729F94
:102A0000BB27F00DB11D639FAA27F00DB11DAA1FB2
:102A1000649F6627B00DA11D661F829F2227B00DFF
:102A2000A11D621F739FB00DA11D621F839FA00D8A
:102A3000611D221F749F3327A00D611D231F849FDA
:102A4000600D211D822F762F6A2F11249F57504031
:102A50008AF0E1F088234AF0EE0FFF1FBB1F661FCC
:102A6000771F881F91505040A9F79E3F510570F085
:102A70005CCFA6CF5F3FECF3983EDCF3869577956D
:102A80006795B795F795E7959F5FC1F7FE2B880F80
:102A9000911D9695879597F90895629FD001739F30
:102AA000F001829FE00DF11D649FE00DF11D929FEA
:102AB000F00D839FF00D749FF00D659FF00D992729
:102AC000729FB00DE11DF91F639FB00DE11DF91F4D
:102AD000BD01CF0111240895A1E21A2EAA1BBB1B30
:102AE000FD010DC0AA1FBB1FEE1FFF1FA217B307DA
:102AF000E407F50720F0A21BB30BE40BF50B661FF0
:102B0000771F881F991F1A9469F7609570958095B3
:102B100090959B01AC01BD01CF010895FB019F0180
:102B2000E8944230C4F04532B4F44A3029F497FBBB
:102B30001EF4909581959F4F642F77270E94BF15B3
:102B4000805D8A330CF0895D8193CB010097A1F7FA
:102B500016F45DE251931082C9010C94AF15DC01AB
:102B6000FC01672F71917723E1F7329704C07C91C4
:102B70006D9370836291AE17BF07C8F30895AA1BC7
:102B8000BB1B51E107C0AA1FBB1FA617B70710F058
:102B9000A61BB70B881F991F5A95A9F7809590958A
:0A2BA000BC01CD010895F894FFCFA9
:102BAA003132334134353642373839432A303D449D
:102BBA0048454C4C4F210073657420706173733A19
:102BCA000050617373776F72642069732073657440
:102BDA0000456E74657220706173733A002020207C
:102BEA0056414C49442050494E00424F58204F50BC
:102BFA00454E4544002020494E56414C49442050F8
:102C0A00494E00456E746572206F6C642070617362
:102C1A0073004F6C6420706173733A0057726F6E61
:102C2A00672070617373776F7264006368616E679F
:102C3A006520706173733A003000000000000000E4
:102C4A00000000000000000000000000000000007A
:0E2C5A000000000000000000000030033C00FD
:00000001FF
